:1000000000308A00D6290000FF00030E8301A10002
:100010007F08A0000A08A8008A01A00E0408A20018
:100020007708A3007808A4007908A5007A08A6003C
:100030007B08A700831383128C308400001C2228C5
:100040000C183528220884002308F7002408F8003B
:100050002508F9002608FA002708FB0028088A006E
:10006000210E8300FF0E7F0E0900831686110830D3
:10007000831286060C108A1122282830A900293004
:10008000AA002E30AB002F30AC003430AD0035303C
:10009000AE003630AF003730B000062A3A080739D4
:1000A000F7003A0CF800F80CF80C1F30F805780847
:1000B0003C07840083133D188317F801F80AF70AF8
:1000C0006228F80DF70B6128BB0803196A28780825
:1000D00080046D28F8097808800500343908FC3E52
:1000E0000318E428043EE5283708BA00BB01BD0127
:1000F000BC014E203708BA00BB01BD018030BC00F6
:100100004E203808BA00BB01BD01BC014E203808A2
:10011000BA00BB01BD018030BC004E20E428370886
:10012000BA00BB01BD01BC014E203708BA00BB01BB
:10013000BD018030BC004E203808BA000130BB0041
:10014000BD01BC014E203808BA00BB01BD018030A2
:10015000BC004E20E4283708BA000130BB00BD01C6
:10016000BC014E203708BA00BB01BD018030BC0085
:100170004E203808BA00BB01BD01BC014E20380832
:10018000BA00BB01BD018030BC004E20E428370816
:10019000BA000130BB00BD01BC014E203708BA00D7
:1001A000BB01BD018030BC004E203808BA000130D0
:1001B000BB00BD01BC014E203808BA00BB01BD0127
:1001C0008030BC004E20E42800340A108A100A1146
:1001D000820774288F28AB28C7283508840083132A
:1001E000361883170008F03C031D882901303507B5
:1001F00084008313361883170008203C031D8829C8
:100200000230350784008313361883170008CC3E6C
:1002100003188829343E89292A08B8002908B7001C
:10022000B9016E2088292A08B8002908B7000130D2
:10023000B9006E2088292A08B8002908B7000230C2
:10024000B9006E2088292A08B8002908B7000330B1
:10025000B9006E2088292C08B8002B08B700B90116
:100260006E2088292C08B8002B08B7000130B9008F
:100270006E2088292C08B8002B08B7000230B9007E
:100280006E2088292C08B8002B08B7000330B9006D
:100290006E2088292E08B8002D08B700B9016E20FD
:1002A00088292E08B8002D08B7000130B9006E204B
:1002B00088292E08B8002D08B7000230B9006E203A
:1002C00088292E08B8002D08B7000330B9006E2029
:1002D00088293008B8002F08B700B9016E20882996
:1002E0003008B8002F08B7000130B9006E20882907
:1002F0003008B8002F08B7000230B9006E208829F6
:100300003008B8002F08B7000330B9006E208829E4
:10031000102A0A148A100A1182070C2913291B2992
:1003200023298829882988298829882988298829AA
:10033000882988298829882988292B2932293A2936
:10034000422988298829882988298829882988296B
:10035000882988298829882988294A2951295929B9
:10036000612988298829882988298829882988292C
:10037000882988298829882988296929702978293C
:10038000802935308400831300080319D5290130F2
:10039000F800F701F70BCA29F80BC9294A30F70012
:1003A000F70BD029D329800BC729132A8401831383
:1003B0001F30830583168E1519309900A6309800DA
:1003C00090308312980007309F0083160108C039CF
:1003D00007388100B530831290000030F800920099
:1003E000003083169200073083129F0083160508A1
:1003F0000330F700F70BFA2983121F080C1383163A
:100400009F010C14C03083128B043D28F030B100E2
:100410002030B200B301B30AB6013130B500ED2887
:0A0420006430B500C1290B2A630007
:02400E00383F39
:00000001FF
;PIC16F628A
