:1000000000308A00F4290000FF00030E8301A100E4
:100010007F08A0000A08A8008A01A00E0408A20018
:100020007708A3007808A4007908A5007A08A6003C
:100030007B08A700831383128C308400001C2228C5
:100040000C183528220884002308F7002408F8003B
:100050002508F9002608FA002708FB0028088A006E
:10006000210E8300FF0E7F0E09000C108A1122283A
:100070002830A9002930AA002E30AB002F30AC0068
:100080003430AD003530AE003630AF003730B00020
:100090002A2A8C1E49281A08B1003108F03C031D99
:1000A00062288C1E51281A08B2003208203C031D19
:1000B00062288C1E59281A08B3008F018E01013066
:1000C000F80064280030F8002B2A38080739F700B8
:1000D000380CF800F80CF80C1F30F80578083A07CF
:1000E000840083133B188317F801F80AF70A79286C
:1000F000F80DF70B7828B9080319812878088004CF
:100100008428F8097808800500343708FC3E031875
:10011000FB28043EFC283508B800B901BB01BA0130
:1001200065203508B800B901BB018030BA006520F0
:100130003608B800B901BB01BA0165203608B8001D
:10014000B901BB018030BA006520FB283508B80032
:10015000B901BB01BA0165203508B800B901BB017E
:100160008030BA0065203608B8000130B900BB0104
:10017000BA0165203608B800B901BB018030BA0069
:100180006520FB283508B8000130B900BB01BA0171
:1001900065203508B800B901BB018030BA00652080
:1001A0003608B800B901BB01BA0165203608B800AD
:1001B000B901BB018030BA006520FB283508B800C2
:1001C0000130B900BB01BA0165203508B800B9019A
:1001D000BB018030BA0065203608B8000130B90094
:1001E000BB01BA0165203608B800B901BB018030F7
:1001F000BA006520FB2800340A148A100A1182070D
:100200008B28A628C228DE283408003A031957296B
:10021000013A03195E29033A03196629013A0319C1
:100220006E29133A03197629013A03197D29033AF5
:1002300003198529013A03198D29333A03199529A0
:10024000013A03199C29033A0319A429013A031915
:10025000AC29133A0319B429013A0319BB29033A0B
:100260000319C329013A0319CB29933A0319D32956
:10027000013A0319D529033A0319D829013A031978
:10028000DB29073A0319DE29013A0319E129033A68
:100290000319E429013A0319E7290F3A0319EA2956
:1002A000013A0319ED29033A0319F029F3292A0821
:1002B000B6002908B500B7018520F3292A08B60041
:1002C0002908B5000130B7008520F3292A08B600B7
:1002D0002908B5000230B7008520F3292A08B600A6
:1002E0002908B5000330B7008520F3292C08B60093
:1002F0002B08B500B7018520F3292C08B6002B0880
:10030000B5000130B7008520F3292C08B6002B0872
:10031000B5000230B7008520F3292C08B6002B0861
:10032000B5000330B7008520F3292E08B6002D084C
:10033000B500B7018520F3292E08B6002D08B500B9
:100340000130B7008520F3292E08B6002D08B5002E
:100350000230B7008520F3292E08B6002D08B5001D
:100360000330B7008520F3293008B6002F08B50008
:10037000B7018520F3293008B6002F08B5000130F9
:10038000B7008520F3293008B6002F08B5000230E9
:10039000B7008520F3293008B6002F08B5000330D8
:1003A000B7008520F3299501F3290F309500F32933
:1003B0001F309500F3292E309500F3293E3095002B
:1003C000F3294D309500F3295D309500F3296C3009
:1003D0009500F3297C309500F3298B309500F329A3
:1003E0009C309500F329352A840183131F3083053F
:1003F00083168E1519309900A23098009030831220
:10040000980007309F0083160108C0390738810023
:10041000B530831290000030F800063892009B300F
:10042000831692008611831286110C309700950175
:1004300007309F00831605080330F700F70B1E2ACC
:1004400083121F080C1383169F010C14C0308312F3
:100450008B0438284928780B352A83160511043077
:0E046000831285063308B40004292A2A63009B
:02400E00383F39
:00000001FF
;PIC16F628A
