:1000000000308A00B42800002830A0002930A10068
:100010002E30A2002F30A3003430A4003530A500CC
:100020003630A6003730A700E0282E080739F70041
:100030002E0CF800F80CF80C1F30F8057808300783
:100040008400831331188317F801F80AF70A292866
:10005000F80DF70B2828AF08031931287808800419
:100060003428F8097808800500342D08FC3E031870
:10007000AB28043EAC282B08AE00AF01B101B001A3
:1000800015202B08AE00AF01B1018030B000152063
:100090002C08AE00AF01B101B00115202C08AE0054
:1000A000AF01B1018030B0001520AB282B08AE00A5
:1000B000AF01B101B00115202B08AE00AF01B101B5
:1000C0008030B00015202C08AE000130AF00B10127
:1000D000B00115202C08AE00AF01B1018030B00096
:1000E0001520AB282B08AE000130AF00B101B001E4
:1000F00015202B08AE00AF01B1018030B0001520F3
:100100002C08AE00AF01B101B00115202C08AE00E3
:10011000AF01B1018030B0001520AB282B08AE0034
:100120000130AF00B101B00115202B08AE00AF01C6
:10013000B1018030B00015202C08AE000130AF00B6
:10014000B101B00115202C08AE00AF01B101803023
:10015000B0001520AB2800340A108A100A1182075B
:100160003B28562872288E28840183131F3083056C
:1001700083168E1519309900A6309800903083129E
:10018000980007309F0083160108C739083881009E
:10019000831290010030F800920000308316920024
:1001A000073083129F00831605080330F700F70B12
:1001B000D72883121F080C1383169F01831204286B
:1001C0002108AC002008AB00AD0135202108AC00AF
:1001D0002008AB000130AD0035202108AC0020081C
:1001E000AB000230AD0035202108AC002008AB0088
:1001F0000330AD0035202308AC002208AB00AD0170
:1002000035202308AC002208AB000130AD003520BA
:100210002308AC002208AB000230AD0035202308D3
:10022000AC002208AB000330AD0035202508AC003F
:100230002408AB00AD0135202508AC002408AB0034
:100240000130AD0035202508AC002408AB00023099
:10025000AD0035202508AC002408AB000330AD000C
:1002600035202708AC002608AB00AD013520270853
:10027000AC002608AB000130AD0035202708AC00EB
:100280002608AB000230AD0035202708AC00260858
:10029000AB000330AD003520831686110830831281
:0602A0008606E028630061
:02400E00383F39
:00000001FF
;PIC16F628A
