:1000000000308A00B42800002830A0002930A10068
:100010002E30A2002F30A3003430A4003530A500CC
:100020003630A6003730A700E0282B080739F70044
:100030002B0CF800F80CF80C1F30F80578082D0789
:10004000840083132E188317F801F80AF70A292869
:10005000F80DF70B2828AC0803193128780880041C
:100060003428F8097808800500342A08FC3E031873
:10007000AB28043EAC282808AB00AC01AE01AD01B2
:1000800015202808AB00AC01AE018030AD00152072
:100090002908AB00AC01AE01AD0115202908AB0069
:1000A000AC01AE018030AD001520AB282808AB00B4
:1000B000AC01AE01AD0115202808AB00AC01AE01CA
:1000C0008030AD0015202908AB000130AC00AE0136
:1000D000AD0115202908AB00AC01AE018030AD00A8
:1000E0001520AB282808AB000130AC00AE01AD01F3
:1000F00015202808AB00AC01AE018030AD00152002
:100100002908AB00AC01AE01AD0115202908AB00F8
:10011000AC01AE018030AD001520AB282808AB0043
:100120000130AC00AE01AD0115202808AB00AC01D8
:10013000AE018030AD0015202908AB000130AC00C5
:10014000AE01AD0115202908AB00AC01AE01803035
:10015000AD001520AB2800340A108A100A1182075E
:100160003B28562872288E28840183131F3083056C
:1001700083168E1519309900A6309800903083129E
:10018000980007309F0083160108C739083881009E
:10019000831290010030F800920000308316920024
:1001A000073083129F00831605080330F700F70B12
:1001B000D72883121F080C1383169F01831204286B
:1001C0002108A9002008A800AA0135202108A900BB
:1001D0002008A8000130AA0035202108A900200825
:1001E000A8000230AA0035202108A9002008A80094
:1001F0000330AA0035202308A9002208A800AA017C
:1002000035202308A9002208A8000130AA003520C3
:100210002308A9002208A8000230AA0035202308DC
:10022000A9002208A8000330AA0035202508A9004B
:100230002408A800AA0135202508A9002408A80040
:100240000130AA0035202508A9002408A8000230A2
:10025000AA0035202508A9002408A8000330AA0018
:1002600035202708A9002608A800AA01352027085C
:10027000A9002608A8000130AA0035202708A900F7
:100280002608A8000230AA0035202708A900260861
:0C029000A8000330AA003520E02863001D
:02400E00383F39
:00000001FF
;PIC16F628A
