:1000000000308A00372A0000FF00030E8301A100A0
:100010007F08A0000A08A8008A01A00E0408A20018
:100020007708A3007808A4007908A5007A08A6003C
:100030007B08A700831383128C308400001C2228C5
:100040000C18D428220884002308F7002408F8009C
:100050002508F9002608FA002708FB0028088A006E
:10006000210E8300FF0E7F0E090042080739F700BA
:10007000420CF800F80CF80C1F30F805780844071B
:100080008400831345188317F801F80AF70A4928F2
:10009000F80DF70B4828C308031951287808800485
:1000A0005428F8097808800500344108FC3E0318FC
:1000B000CB28043ECC283F08C200C301C501C401BF
:1000C00035203F08C200C301C5018030C40035207F
:1000D0004008C200C301C501C40135204008C20068
:1000E000C301C5018030C4003520CB283F08C200C1
:1000F000C301C501C40135203F08C200C301C501C9
:100100008030C40035204008C2000130C300C50162
:10011000C40135204008C200C301C5018030C400BD
:100120003520CB283F08C2000130C300C501C401FF
:1001300035203F08C200C301C5018030C40035200E
:100140004008C200C301C501C40135204008C200F7
:10015000C301C5018030C4003520CB283F08C20050
:100160000130C300C501C40135203F08C200C301EE
:10017000C5018030C40035204008C2000130C300F2
:10018000C501C40135204008C200C301C50180304B
:10019000C4003520CB2800340A108A100A118207C7
:1001A0005B2876289228AE282B08C0002A08BF00BA
:1001B000C10155202D08C0002C08BF00C1015520E9
:1001C0002F08C0002E08BF00C10155203108C00013
:1001D0003008BF00C10155200C108A112228283098
:1001E000AA002930AB002E30AC002F30AD003430E7
:1001F000AE003530AF003630B0003730B100672A7E
:100200008C1E00291A08B2003208F03C031D19297F
:100210008C1E08291A08B3003308203C031D192935
:100220008C1E10291A08B4008F018E010130F800CD
:100230001B290030F800682A3508CC3E0318FE2937
:10024000343EFF29A9018B1BA9178B132B08C00073
:100250002A08BF00C1015520A91B8B17FE29A9013F
:100260008B1BA9178B132B08C0002A08BF00013075
:10027000C1005520A91B8B17FE29A9018B1BA917AB
:100280008B132B08C0002A08BF000230C100552084
:10029000A91B8B17FE29A9018B1BA9178B132B08F0
:1002A000C0002A08BF000330C1005520A91B8B17CE
:1002B000FE29A9018B1BA9178B132D08C0002C0840
:1002C000BF00C1015520A91B8B17FE29A9018B1B5B
:1002D000A9178B132D08C0002C08BF000130C100E6
:1002E0005520A91B8B17FE29A9018B1BA9178B135E
:1002F0002D08C0002C08BF000230C1005520A91BEA
:100300008B17FE29A9018B1BA9178B132D08C00081
:100310002C08BF000330C1005520A91B8B17FE29F4
:10032000A9018B1BA9178B132F08C0002E08BF0033
:10033000C1015520A91B8B17FE29A9018B1BA917E9
:100340008B132F08C0002E08BF000130C1005520BC
:10035000A91B8B17FE29A9018B1BA9178B132F082B
:10036000C0002E08BF000230C1005520A91B8B170A
:10037000FE29A9018B1BA9178B132F08C0002E087B
:10038000BF000330C1005520A91B8B17FE29A9010E
:100390008B1BA9178B133108C0003008BF00C101A7
:1003A0005520A91B8B17FE29A9018B1BA9178B139D
:1003B0003108C0003008BF000130C1005520A91B22
:1003C0008B17FE29A9018B1BA9178B133108C000BD
:1003D0003008BF000230C1005520A91B8B17FE2931
:1003E000A9018B1BA9178B133108C0003008BF006F
:1003F0000330C1005520A91B8B17FE29722A0A1051
:100400008A140A11820722292F293D294B29FE2906
:10041000FE29FE29FE29FE29FE29FE29FE29FE29A4
:10042000FE29FE29FE295929662974298229FE29D7
:10043000FE29FE29FE29FE29FE29FE29FE29FE2984
:10044000FE29FE29FE2990299D29AB29B929FE29DB
:10045000FE29FE29FE29FE29FE29FE29FE29FE2964
:10046000FE29FE29FE29C729D429E229F029840181
:1004700083131F30830583168E1519309900A2301F
:10048000980090308312980007309F00831601086F
:10049000C03907388100B530831290000030F80071
:1004A0009200003083169200073083129F0083165B
:1004B00005080330F700F70B5B2A83121F080C13A3
:1004C00083169F010C14C03083128B04EF2800297F
:1004D000780B722A83168611083083128606340838
:0804E000B5001C29672A630026
:02400E00383F39
:00000001FF
;PIC16F628A
